:020000040800F2
:10000000B80C002061020008ED1B0008A51A0008CA
:10001000E91B0008BD03000895240008000000004B
:10002000000000000000000000000000A101000826
:10003000EB04000800000000FD010008F11B0008AF
:100040007B0200087B0200087B0200087B0200089C
:100050007B0200087B0200087B0200087B0200088C
:100060007B0200087B0200087B0200087B0200087C
:100070007B0200087B0200087B0200087B0200086C
:100080007B0200087B0200087B0200087B0200085C
:100090007B0200087B0200087B0200087B0200084C
:1000A0007B0200087B0200087B0200087B0200083C
:1000B0007B0200087B0200087B0200087B0200082C
:1000C0007B0200087B0200087B0200087B0200081C
:1000D0007B020008B92300087B0200087B020008AD
:1000E0007B0200087B0200087B0200087B020008FC
:1000F0007B0200087B0200087B0200087B020008EC
:100100007B0200087B0200087B0200087B020008DB
:100110007B0200087B0200087B0200087B020008CB
:100120007B0200087B0200087B0200087B020008BB
:100130007B0200087B0200087B0200087B020008AB
:100140007B0200087B0200087B0200087B0200089B
:10015000C10300087B020008D10300087B020008ED
:100160007B0200087B0200087B0200087B0200087B
:100170007B0200087B0200087B02000800000000F0
:100180007B0200087B020008DFF810D000F004F9C1
:1001900000480047F1280008AFF30080B80C0020A9
:1001A0002C4B19680868B0E8F04F80F30988BFF35A
:1001B0006F8F4FF0000080F311887047000000003F
:1001C00008480068006880F308884FF0000080F35A
:1001D000148862B661B6BFF34F8FBFF36F8F00DF35
:1001E00000BF00BF08ED00E0DFF80C00016841F43B
:1001F00070010160704700BF88ED00E0EFF30980F7
:10020000BFF36F8F134B1A681EF0100F08BF20ED5D
:10021000108A20E9F04F106009B44FF0500080F3CD
:100220001188BFF34F8FBFF36F8F02F0B7FD4FF010
:10023000000080F3118809BC19680868B0E8F04F25
:100240001EF0100F08BFB0EC108A80F30988BFF3CE
:100250006F8F704738000020EFF305807047000073
:100260000648804706480047FEE7FEE7FEE7FEE750
:10027000FEE7FEE7FEE7FEE7FEE7FEE7D91C000823
:10028000890100082DE9F05F0546002092469B4653
:1002900088460646814640241BE02846414647469C
:1002A000224600F069F853465A46C01A914110D3CD
:1002B00011461846224600F050F82D1A67EB010847
:1002C0004F4622460120002100F047F817EB0009B5
:1002D0004E41201EA4F10104DFDC484631462A4687
:1002E0004346BDE8F09F40EA01039B0703D009E0C5
:1002F00008C9121F08C0042AFAD203E011F8013B12
:1003000000F8013B521EF9D27047D2B201E000F86A
:10031000012B491EFBD270470022F6E710B51346A9
:100320000A4604461946FFF7F0FF204610BD30B5D7
:100330000B46014600202022012409E021FA02F5A3
:100340009D4205D303FA02F5491B04FA02F528443D
:10035000151EA2F10102F1DC30BD202A04DB203A97
:1003600000FA02F1002070479140C2F1200320FA08
:1003700003F3194390407047202A04DB203A21FA06
:1003800002F00021704721FA02F3D040C2F12002AE
:100390009140084319467047064C074D06E0E06857
:1003A00040F0010394E8070098471034AC42F6D3BC
:1003B000FFF7EEFE603400088034000800BFFEE75F
:1003C00010B5024800F000F910BD00001403002031
:1003D00010B5024800F0F8F810BD000074030020CA
:1003E0000146087810381823B0FBF3F20848805C07
:1003F000C865032A05D908686FF30900001D8865E0
:1004000003E008686FF309008865886D7047000095
:1004100040340008014600208A6A8B69CBB932B1AA
:10042000012A0DD0022A03D0032A10D10EE000BF0A
:10043000CB6A03F08073B3F1807F00D1012007E025
:10044000CB6AB3F1C07F00D1012001E000E000BF22
:1004500034E08B69B3F5005F1AD132B1012A07D0BD
:10046000022A03D0032A11D10AE000BF01200EE0C6
:10047000CB6A03F08073B3F1807F00D1012006E0E6
:10048000CB6AB3F1C07F00D1012000E000BF15E0CE
:1004900032B1012A05D0022A04D0032A0CD103E08C
:1004A00000BF00BF012008E0CB6A03F08073B3F106
:1004B000807F00D1012000E000BF00BF704730B551
:1004C0000468246824F4802405682C600468636050
:1004D0008468402C04D10468A2600468E16003E0F1
:1004E0000468A1600468E26030BD704772B600BF66
:1004F000FEE770B50446A56D00F04EFB064694F885
:100500003500022808D08020606500BF002084F8F4
:10051000340000BF012070BD2068006820F0160084
:10052000216808602068406920F0800021684861E7
:10053000206C08B9A06C28B12068006820F0080081
:10054000216808602068006820F0010021680860C8
:1005500010E000F021FB801B05280BD920206065EE
:10056000032084F8350000BF002084F8340000BF69
:100570000320D0E72068006800F001000028E8D1DF
:1005800094F85C103F208840A860012084F8350072
:1005900000BF002084F8340000BF00BFBBE7014665
:1005A00091F83500022803D080204865012070476B
:1005B000052081F835000868006820F001000A680D
:1005C00010600020F3E70000F8B50446002000901A
:1005D0008C4800684FF41651B0FBF1F7A56D2E68FA
:1005E00094F85C1008208840304098B1206800687A
:1005F00000F0040070B12068006820F00400216859
:10060000086094F85C1008208840A860606D40F095
:100610000100606594F85C1001208840304068B1AA
:100620002068406900F0800040B194F85C1001201F
:100630008840A860606D40F00200606594F85C102E
:1006400004208840304068B12068006800F0020053
:1006500040B194F85C1004208840A860606D40F0C0
:100660000400606594F85C1010208840304078B336
:100670002068006800F0080050B394F85C10102067
:100680008840A8602068006800F4802080B120685D
:10069000006800F4002028B9206CC8B12046216C05
:1006A000884715E0A06C98B12046A16C88470FE000
:1006B0002068006800F4807028B92068006820F085
:1006C000080021680860206C10B12046216C884722
:1006D00094F85C10202088403040002865D02068C5
:1006E000006800F0100000285FD094F85C10202013
:1006F0008840A86094F83500052828D12068006853
:1007000020F01600216808602068406920F0800011
:1007100021684861206C08B9A06C28B12068006885
:1007200020F008002168086094F85C103F208840A1
:10073000A860012084F8350000BF002084F8340050
:1007400000BF206D10B12046216D8847F8BD20689C
:10075000006800F4802080B12068006800F4002068
:1007600028B9606C10B12046616C88471DE0E06BD1
:10077000D8B12046E16B884717E02068006800F494
:10078000807068B92068006820F010002168086057
:10079000012084F8350000BF002084F8340000BF39
:1007A000E06B10B12046E16B8847606D38B3606D37
:1007B00000F00100F0B1052084F8350020680068E1
:1007C00020F001002168086000BF0098401C0090E4
:1007D000B84200D905E02068006800F00100002858
:1007E000F3D100BF012084F8350000BF002084F859
:1007F000340000BFE06C10B12046E16C884700BFB8
:10080000A4E70000340000202DE9F0410446002553
:1008100000F0C2F9074614B90120BDE8F081606A12
:1008200000B100BF022084F8350000BF002084F82A
:10083000340000BF2068006820F0010021680860D3
:100840000AE000F0A9F9C01B052805D92020606541
:10085000032084F83500E0E72068006800F001001C
:100860000028EED12068056821480540D4E901013F
:100870000843E16808432169084361690843A169A5
:100880000843E1690843216A08430543606A042874
:1008900003D1D4E90B0108430543206805602068B3
:1008A000456925F00705606A0543606A04280DD193
:1008B000A06A0543E06A48B12046FFF7ABFD28B1C6
:1008C00040206065012084F83500A6E72068456176
:1008D0002046FFF785FD064694F85C103F208840CF
:1008E000B06000206065012084F83500002094E7A6
:1008F0003F8010F02DE9F04704460D4616461F468E
:100900004FF00008D4F8589000BF94F83400012844
:1009100002D10220BDE8F087012084F8340000BF36
:1009200094F83500012825D1022084F835000020F4
:1009300060653B46324629462046FFF7C0FD94F8E5
:100940005C103F208840C9F808002068006840F02B
:10095000160021680860206C28B12068006840F00B
:100960000800216808602068006840F001002168E4
:10097000086006E000BF002084F8340000BF4FF09C
:1009800002084046C6E70000F8B502460B460025BF
:10099000002400200021D6E0012606FA01F51E6899
:1009A00006EA0504AC4274D11E7906F00306012E56
:1009B00004D01E7906F00306022E13D190684F0072
:1009C0000326BE40B0434F00DE68BE403043906017
:1009D000506801268E40B0431E79C6F300168E4043
:1009E000304350601E7906F00306032E09D0D0680C
:1009F0004F000326BE40B0434F009E68BE403043C8
:100A0000D0601E7906F00306022E13D1CF0802F142
:100A1000200656F827004E07F70E0F26BE40B043BB
:100A20004F07FF0E1E69BE403043CF0802F120067B
:100A300046F8270010684F000326BE40B0431E79D9
:100A400006F003064F00BE40304310605E6806F4B7
:100A50004036002E76D000BF002600963C4E366809
:100A600046F480463A4F3E603E46366806F480467D
:100A7000009600BF00BF374E8F0856F827008E073C
:100A8000370F0F26BE40B043334EB24202D100268C
:100A900024E057E0314EB24201D101261EE0304E33
:100AA000B24201D1022619E02E4EB24201D10326F4
:100AB00014E02D4EB24201D104260FE02B4EB2427B
:100AC00001D105260AE02A4EB24201D1062605E0F0
:100AD000284EB24201D1072600E008268F073F0FBB
:100AE000BE4030431B4E8F0846F82700224E306828
:100AF000A0435E6806F4801606B120431E4E3060A7
:100B0000361D3068A0435E6806F4001606B1204327
:100B1000194E361D3060184E361F3068A0435E688F
:100B200006F4003606B12043134E361F3060361FE0
:100B30003068A0435E6806F4803606B120430E4E4E
:100B4000083E3060491C1029FFF426AFF8BD0000B4
:100B500044380240083801400000024000040240CE
:100B600000080240000C0240001002400014024045
:100B700000180240001C0240083C01400246136974
:100B80000B400BB1012000E0002070470AB18161E9
:100B900001E00B0483617047014800687047000062
:100BA00028000020034800680349097808440149E7
:100BB00008607047280000203000002010B50D4864
:100BC000006840F400700B4908600846006840F473
:100BD000806008600846006840F480700860032068
:100BE00000F0A6F80F2000F007F800F02BF8002026
:100BF00010BD0000003C024070B504460E4800786D
:100C00004FF47A71B1FBF0F00C490968B1FBF0F5D3
:100C1000284600F02FFC08B1012070BD102C07D22F
:100C200000222146501E00F045F80548046001E00E
:100C30000120F2E70020F0E730000020340000201F
:100C40002C00002008B500BF002000900E4800686E
:100C500040F480400C4908600846006800F4804079
:100C6000009000BF00BF00BF00200090081F006878
:100C700040F08050091F08600846006800F080506E
:100C8000009000BF00BF08BD44380240014608463E
:100C900000280DDB00BF00BF00F01F0301229A40B7
:100CA00043099B0003F1E023C3F8002100BF00BF0C
:100CB00000BF70472DE9F05F80460D4616460027BD
:100CC00001F0FAFB074639462A46334601F0070091
:100CD000C0F1070ABAF1040F02D94FF0040A01E08B
:100CE000C0F1070AD14600F1040ABAF1070F02D297
:100CF0004FF0000A01E0A0F1030AD4464FF0010AC8
:100D00000AFA09FAAAF1010A0AEA020A0AFA0CFA2C
:100D10004FF0010B0BFA0CFBABF1010B0BEA030BD1
:100D20004AEA0B042146404601F0CEFBBDE8F09FA5
:100D300000BF00F00702064B19684FF6FF03194089
:100D4000044B0B4343EA0221014B196000BF70477B
:100D50000CED00E00000FA0570B504460D460CB934
:100D6000012070BD5848006800F00700A84209D271
:100D700055490D700846006800F00700A84201D0F0
:100D80000120EEE7207800F0020002281DD1207833
:100D900000F00400042805D14C48006840F4E050FD
:100DA0004A490860207800F00800082805D1474823
:100DB000006840F46040454908604448006820F0FD
:100DC000F000A168084341490860207800F0010064
:100DD000A8B36068012807D13C4808380068C0F310
:100DE0004040B8B90120BCE76068022802D06068C2
:100DF000032807D1354808380068C0F3406048B977
:100E00000120AEE7314808380068C0F3400008B957
:100E10000120A6E72D48006820F003006168084320
:100E20002A490860FFF7B8FE064609E0FFF7B4FE5E
:100E3000801B41F28831884202D9032091E707E004
:100E40002248006800F00C006168B0EB810FEDD122
:100E50001D48006800F00700A84209D91A490D7022
:100E60000846006800F00700A84201D0012078E79A
:100E7000207800F00400042807D11448006820F40A
:100E8000E050E168084311490860207800F008004C
:100E9000082808D10D48006820F46040216940EA24
:100EA000C1000A49086000F03FF808490968C1F329
:100EB0000311074A515CC8400649086006480068AB
:100EC000FFF79AFE00204CE7003C02400838024041
:100ED00048340008340000202C000020014800683D
:100EE000704700003400002000B5FFF7F7FF044909
:100EF0000968C1F38221034A515CC84000BD00006B
:100F0000083802405834000800B5FFF7E7FF0449ED
:100F10000968C1F34231034A515CC84000BD00007A
:100F200008380240583400082DE9F0470024002515
:100F30000026A1462548006800F00C0020B10428D6
:100F400005D008283AD105E0DFF8849039E0DFF8D1
:100F5000849036E01D48001F006800F03F041B48E5
:100F6000001F006800F4800078B11A481749091F73
:100F70000968C1F38811A0FB0170014622460023D5
:100F80003846FFF77FF905460EE011480F49091F63
:100F90000968C1F38811A0FB0170014622460023B5
:100FA0003846FFF76FF905460848001F0068C0F390
:100FB0000140401C4600B5FBF6F902E0DFF8109056
:100FC00000BF00BF4846BDE8F08700000838024077
:100FD0000024F40040787D01F8B504460CB90120E6
:100FE000F8BD207800F00100002874D0F9480068AE
:100FF00000F00C0004280DD0F648006800F00C004A
:10100000082813D1F348001F006800F48000B0F5F1
:10101000800F0BD1EF4808380068C0F3404000282B
:1010200059D06068002856D10120D9E700BF606818
:10103000B0F5803F08D1E7480838006840F48030B8
:10104000E449083908601EE06068B0F5A02F0DD1B2
:10105000E0480838006840F48020DE49083908601C
:101060000846006840F4803008600CE0D948083831
:10107000006820F48030D7490839086008460068C5
:1010800020F48020086000BF606890B1FFF784FD05
:10109000054606E0FFF780FD401B642801D90320C8
:1010A0009EE7CC4808380068C0F340400028F1D0E3
:1010B00011E0FFF771FD054606E0FFF76DFD401BEF
:1010C000642801D903208BE7C24808380068C0F3C0
:1010D00040400028F1D1207800F0020002285FD1C2
:1010E000BC48006800F00C0058B1BA48006800F035
:1010F0000C0008281CD1B748001F006800F48000CD
:10110000B0B9B44808380068C0F3400020B1E068C6
:10111000012801D0012063E7AE480838006820F0BC
:10112000F800216940EAC100AA490839086037E09F
:10113000E06800B30120A8490860FFF72DFD0546CF
:1011400006E0FFF729FD401B022801D9032047E7ED
:10115000A04808380068C0F340000028F1D09D483E
:101160000838006820F0F800216940EAC100994978
:101170000839086014E0002097490860FFF70CFD6B
:10118000054606E0FFF708FD401B022801D90320B1
:1011900026E7904808380068C0F340000028F1D1E5
:1011A000207800F0080008282CD16069A8B101203F
:1011B0008A490860FFF7F0FC054606E0FFF7ECFC03
:1011C000401B022801D903200AE782486C300068DE
:1011D000C0F340000028F1D014E000207F490860EF
:1011E000FFF7DAFC054606E0FFF7D6FC401B0228B5
:1011F00001D90320F4E677486C300068C0F3400062
:101200000028F1D1207800F00400042870D10027D4
:1012100070483830006800F0805090B900BF00205E
:1012200000906C483830006840F08050694938318F
:1012300008600846006800F08050009000BF00BFC2
:1012400001276748006800F48070B0B964480068FE
:1012500040F4807062490860FFF79EFC054606E096
:10126000FFF79AFC401B022801D90320B8E65C482E
:10127000006800F480700028F2D000BFA068012848
:1012800008D154486830006840F001005149683185
:1012900008601DE0A06805280DD14E486830006840
:1012A00040F004004B49683108600846006840F08F
:1012B000010008600CE047486830006820F0010039
:1012C0004449683108600846006820F0040008605E
:1012D00000BFA068A8B1FFF75FFC054609E0FFF773
:1012E0005BFC401B41F28831884202D9032077E63B
:1012F00026E0384868300068C0F340000028EED08F
:1013000013E0FFF749FC054608E0FFF745FC401BEA
:1013100041F28831884201D9032061E62D486830C6
:101320000068C0F340000028EFD1012F07D1294801
:101330003830006820F0805026493831086000BFFE
:10134000A069002845D02348006800F00C00082858
:101350005DD0A069022845D100201F490866FFF72B
:101360001BFC054606E0FFF717FC401B022801D9CD
:10137000032035E6174808380068C0F340600028AD
:10138000F1D1D4E907010843616A40EA81110122E1
:10139000A06AC2EB500041EA00412C20005D41EA06
:1013A00000600C49091F086001200B490866FFF71F
:1013B000F3FB054606E0FFF7EFFB401B022801D9CF
:1013C00003200DE6034808380068C0F34060002899
:1013D000F1D049E00838024000004742800E474201
:1013E00000700040002021490866FFF7D5FB054644
:1013F00006E0FFF7D1FB401B022801D90320EFE5EF
:101400001B480068C0F340600028F2D12CE0A069BE
:10141000012800D1E4E51648001D0668A0690128EE
:1014200020D006F48001E06981421BD106F03F0123
:10143000206A814216D147F6C0703040616AB0EB35
:10144000811F0FD106F440310122A06AC2EB500087
:10145000B1EB004F06D106F070612C20005DB1EBBE
:10146000006F01D00120BBE50020B9E50000474234
:101470000038024070B504462546681EB0F1807FF2
:1014800001D301200FE0681E4FF0E02148610F21D9
:101490004FF0FF3001F018F800204FF0E021886194
:1014A00007200861002070BD704770B50446002514
:1014B00020684069C0F3C01594F84100212817D175
:1014C000B5B100BF00BF2168143151E8001F21F001
:1014D00080002168143141E80002002AF3D100BFE6
:1014E000A06B10B1A06BFFF704F8204600F0E2FCFF
:1014F00020684069C0F3801594F84200222817D173
:10150000B5B100BF00BF2168143151E8001F21F0C0
:1015100040002168143141E80002002AF3D100BFE5
:10152000E06B10B1E06BFEF7E4FF204600F07CFCBE
:10153000002070BD704700002DE9F84F0446206878
:1015400005682068C668206847694FF00009CA46E8
:1015500005F00F09B9F1000F0AD105F0200038B1EC
:1015600006F0200020B1204600F0B7FCBDE8F88F5F
:10157000B9F1000F7CD007F0010018B906F49070A3
:10158000002875D005F0010030B106F4807018B164
:10159000606C40F00100606405F0040030B107F0B9
:1015A000010018B1606C40F00200606405F00200B8
:1015B00030B107F0010018B1606C40F004006064C5
:1015C00005F0080048B106F0200010B907F001004E
:1015D00018B1606C40F008006064606C002846D070
:1015E00005F0200028B106F0200010B1204600F0E0
:1015F00074FC20684069C0F3801A606C00F0080039
:1016000010B9BAF1000F2DD0204600F00DFC206873
:10161000406900F04000402820D100BF00BF216891
:10162000143151E8001F21F040002168143141E8D5
:101630000002002AF3D100BFE06B50B17748E16BA4
:101640000865E06BFEF7ABFF88B1E06B016D884782
:101650000DE02046FFF76EFF09E009E02046FFF7A6
:1016600069FF04E02046FFF765FF002060647DE726
:10167000206B012878D105F01000002874D006F006
:1016800010000028FAD000BF0020009020680068F9
:10169000009020684068009000BF00BF206840694B
:1016A00000F04000402860D1E06B006840681FFAFD
:1016B00080F8B8F1000F56D0A08D404553DDA4F856
:1016C0002E80E06BC069B0F5807F43D000BF00BFC3
:1016D00021680C3151E8001F21F4807021680C3121
:1016E00041E80002002AF3D100BF00BF00BF21681B
:1016F000143151E8001F21F001002168143141E844
:101700000002002AF3D100BF00BF00BF21681431DE
:1017100051E8001F21F040002168143141E8000227
:10172000002AF3D100BF202084F84200002020636B
:1017300000BF00BF21680C3151E8001F21F01000EC
:1017400021680C3141E80002002AF3D100BFE06BB0
:10175000FEF7CFFE02206063A08DE28D801A81B279
:101760002046FFF7A1FE01E742E0A08DE18D401A7F
:101770001FFA80F8E08DD0B3B8F1000F37D000BF6A
:1017800000BF21680C3151E8001F21F490702168DE
:101790000C3141E80002002AF3D100BF00BF00BFB6
:1017A0002168143151E8001F21F001002168143133
:1017B00041E80002002AF3D100BF202084F8420053
:1017C0000020206300BF00BF21680C3151E8001FDA
:1017D00021F0100021680C3141E80002002AF3D109
:1017E00000BF0220606341462046FFF75DFEBDE674
:1017F00005F0800030B106F0800018B1204600F0FE
:1018000065FDB3E605F0400030B106F0400018B1C8
:10181000204600F03FFBA9E600BFA7E6ED1C00084C
:1018200010B504460CB9012010BDA06900B100E05C
:1018300000BF94F8410028B9002084F840002046F9
:1018400000F02AF8242084F841002068C06820F4C1
:1018500000502168C860204600F0BEFB2068006987
:1018600020F49040216808612068406920F02A0037
:10187000216848612068C06840F400502168C86051
:1018800000206064202084F8410084F84200002099
:10189000606300BFC8E7000010B586B0044614219D
:1018A00001A8FEF739FD3D492068884274D100BF88
:1018B000002000903A48006840F010003849086065
:1018C0000846006800F01000009000BF00BF00BF95
:1018D0000020009032481438006840F00100304980
:1018E000143908600846006800F00100009000BF4D
:1018F00000BF4FF4C06001900220029000200390CE
:10190000032004900720059001A92648FFF73CF822
:101910002548264908604FF00060486000212348B0
:101920008160C1604FF4806101610021416181618A
:10193000C16101624162FEF767FF08B1FEF7D6FDA3
:1019400000BF1A48E063846300BF1748303018496D
:1019500008604FF000604860402115488160002118
:10196000C1604FF480610161002141618161C16109
:1019700001624162FEF748FF08B1FEF7B7FD00BF04
:101980000B48A063846300BF002201212520FFF7DC
:1019900091F92520FFF77AF906B010BD001001403B
:1019A00044380240000002408864024014030020D2
:1019B0007403002070B504460D46164694F84200A4
:1019C00020280BD105B10EB9012070BD0020206385
:1019D00032462946204600F015FCF6E70220F4E7DF
:1019E000704770472DE9F84F04460E461746994652
:1019F0004FF0000A94F84100202850D106B117B9E1
:101A00000120BDE8F88F00206064212084F84100A7
:101A1000FFF7C2F88246A784E784A068B0F5805F2C
:101A200004D1206910B90025B04602E035464FF0D8
:101A300000081EE05346002280212046CDF8009089
:101A400000F074FC20B1202084F841000320D8E786
:101A500045B9B8F80000C0F308002168486008F1F3
:101A6000020803E02878216848606D1CE08C401E65
:101A7000E084E08C0028DDD153460022402120463E
:101A8000CDF8009000F052FC20B1202084F84100F5
:101A90000320B6E7202084F841000020B1E70220AF
:101AA000AFE7704700BFFEE708B500BF0020009019
:101AB0000E48006840F480000C4908600846006841
:101AC00000F48000009000BF00BF002201214420EC
:101AD000FFF7F0F84420FFF7D9F800220121462053
:101AE000FFF7E8F84620FFF7D1F808BD303802408C
:101AF00008B500BF002000902448006840F00400B2
:101B0000224908600846006800F00400009000BF09
:101B100000BF00BF002000900846006840F0800031
:101B200008600846006800F08000009000BF00BF19
:101B300000BF002000900846006840F001000860E7
:101B40000846006800F00100009000BF00BF00BF21
:101B5000002000900846006840F002000860084637
:101B6000006800F00200009000BF00BF00BF00202E
:101B700000900846006840F0400008600846006891
:101B800000F04000009000BF00BF08BD30380240A8
:101B900010B51248124908604FF4E1304860002146
:101BA0000F488160C16001610C21416100218161A8
:101BB000C161FFF735FE08B1FEF798FC08480068E0
:101BC000C06840F0100006490968C8604FF4007210
:101BD00004490348FFF7EEFE10BD0000001001406D
:101BE000CC020020CC00002000BFFEE700BFFEE7D3
:101BF00010B500BF5021EFF3118081F31188BFF3BE
:101C00004F8FBFF36F8F00BF0446FEF7CBFF01F08D
:101C1000EBF9012801D001F039F900BF84F31188F4
:101C200000BF10BD00B593B0302107A8FEF774FBCC
:101C3000142102A8FEF770FB00BF00200190244889
:101C4000006840F08050224908600846006800F0B3
:101C50008050019000BF00BF00BF002001901D48D0
:101C6000006840F480401B4908600846006800F4A2
:101C70008040019000BF00BF012007900004089041
:101C800002200D9041050E9119210F914FF4A8717A
:101C90001091022111910421129107A8FFF79CF9DC
:101CA00008B1FEF723FC0F200290022003900020D1
:101CB00004904FF4A05005904FF4805006900521F9
:101CC00002A8FFF749F808B1FEF710FC13B000BDF9
:101CD00040380240007000400348006840F4700043
:101CE000014908607047000088ED00E070B50546C6
:101CF000AC6B0020E085E0842046FFF71BFC70BD44
:101D000070B506460025B46B20684069C0F3C01565
:101D100094F84100212805D125B10020E084204617
:101D200000F0C8F820684069C0F3801594F84200BC
:101D3000222805D125B10020E085204600F074F866
:101D4000606C40F0100060642046FFF7F3FB70BD4C
:101D500070B50546AC6B2868006800F480700028F8
:101D600042D1E08500BF00BF21680C3151E8001F5F
:101D700021F4807021680C3141E80002002AF3D17F
:101D800000BF00BF00BF2168143151E8001F21F0DF
:101D900001002168143141E80002002AF3D100BF9C
:101DA00000BF00BF2168143151E8001F21F040003E
:101DB0002168143141E80002002AF3D100BF20203D
:101DC00084F84200206B01280ED100BF00BF2168BB
:101DD0000C3151E8001F21F0100021680C3141E85E
:101DE0000002002AF3D100BF00206063206B0128AD
:101DF00004D1A18D2046FFF757FB02E02046FFF7F4
:101E0000EFFD70BD70B50546AC6B01206063206BC3
:101E1000012805D1A08D41082046FFF745FB02E0CF
:101E20002046FFF7DEFD70BD00BF00BF02680C3228
:101E300052E8002F22F4907102680C3242E800133D
:101E4000002BF3D100BF00BF00BF0268143252E87C
:101E5000002F22F001010268143242E80013002B27
:101E6000F3D100BF016B01290ED100BF00BF026892
:101E70000C3252E8002F22F0100102680C3242E8C6
:101E80000013002BF3D100BF202180F84210002165
:101E90000163704710B504462068C06820F0400018
:101EA0002168C860202084F841002046FFF7F9FD32
:101EB000002010BD00BF00BF02680C3252E8002FA6
:101EC00022F0C00102680C3242E80013002BF3D16B
:101ED00000BF202180F841107047F8B5044694F8FF
:101EE0004200222875D1A068B0F5805F0CD120692E
:101EF00050B90025A66A20684068C0F30800308009
:101F0000A06A801CA06215E0A56A0026A068B0F552
:101F1000805F03D0A06828B9206918B9206840689C
:101F2000287004E02068406800F07F002870A06AF4
:101F3000401CA062E08D401E80B2E085002846D1A2
:101F40002068C06820F020002168C8602068C06850
:101F500020F480702168C8602068406920F001008A
:101F600021684861202084F8420000206063206BD3
:101F7000012826D10020206300BF00BF21680C315A
:101F800051E8001F21F0100021680C3141E80002E7
:101F9000002AF3D100BF2068006800F0100010286C
:101FA0000AD100BF002000902068006800902068DF
:101FB0004068009000BF00BFA18D2046FFF774FA73
:101FC00002E02046FFF70CFD0020F8BD01E00020F4
:101FD000FBE70220F9E700002DE9F84F04462068EE
:101FE000006920F44050E1680843216808612169D4
:101FF000A068084361690843E169084300902068CC
:10200000C06849F20C618843009908432168C860A0
:102010002068406920F44070A16908432168486144
:1020200076492068884203D075492068884203D1E8
:10203000FEF76AFF814602E0FEF756FF8146E0693F
:10204000B0F5004F6CD102206168A0FB015003463F
:102050001920A9FB007001462A463846FEF712F9FE
:102060006421B0FBF1F04FEA001A02206168A0FB86
:1020700001510B461920A9FB00712A463846FEF78C
:1020800001F9834602206168A0FB01500346192034
:10209000A9FB00712A463846FEF7F4F86421B0FB2C
:1020A000F1F000EBC00101EB0010ABEB800032213E
:1020B00001EBC0006421B0FBF1F000F0F8000AEB86
:1020C000400A02206168A0FB015003461920A9FBC9
:1020D000007001462A463846FEF7D4F883460220AF
:1020E0006168A0FB015003461920A9FB00712A4634
:1020F0003846FEF7C7F86421B0FBF1F000EBC001F1
:1021000001EB0010ABEB8000322101EBC000642139
:10211000B0FBF1F000F007005044216888606AE0ED
:1021200004206168A0FB015003461920A9FB007040
:1021300001462A463846FEF7A5F882460420616823
:10214000A0FB015003461920A9FB007001462A4656
:102150003846FEF797F86421B0FBF1F000EBC001C0
:1021600001EB0010AAEB8000322101EB001064218A
:10217000B0FBF1F000F0F00A04206168A0FB0170F0
:1021800003461920A9FB00513A462846FEF77AF883
:102190006421B0FBF1F00AEB001A04206168A0FB97
:1021A00001510B461920A9FB00712A463846FEF75B
:1021B00069F8834604206168A0FB0150034619209A
:1021C000A9FB007001462A463846FEF75BF86421F9
:1021D000B0FBF1F000EBC00101EB0010ABEB8000B5
:1021E000322101EB00106421B0FBF1F000F00F0090
:1021F000504421688860BDE8F88F0000001001405D
:102200000014014077B581B0044615460298A062DB
:10221000A58500206064222084F842002848E16BF4
:10222000C8632848E16B08642748E16BC864002054
:10223000E16B086502AE32682368191D2B46E06B1E
:10224000FEF758FB00BF0020009020680068009057
:1022500020684068009000BF00BF206970B100BFD7
:1022600000BF21680C3151E8001F41F480702168E3
:102270000C3141E80002002AF3D100BF00BF00BFCB
:102280002168143151E8001F41F001002168143128
:1022900041E80002002AF3D100BF00BF00BF21685F
:1022A000143151E8001F41F040002168143141E829
:1022B0000002002AF3D100BF002004B070BD00006E
:1022C000511D0008051E0008011D0008014691F877
:1022D0004100212828D18868B0F5805F0BD10869BA
:1022E00048B90A6A1088C0F308000B685860086A89
:1022F000801C086205E00B6A581C086218780B689D
:102300005860C88C401E80B2C88458B90868C0683C
:1023100020F080000B68D8600868C06840F040007A
:102320000B68D860002070470220FCE72DE9F843D5
:1023300004460D4617469846089E31E0701C70B35F
:10234000FEF72AFCA0EB0800B04200D816B9032023
:10235000BDE8F8832068C06800F00400F8B1802D63
:102360001ED0402D1CD020680068C0F3C000B0B162
:1023700000BF00200090206800680090206840683E
:10238000009000BF00BF2046FFF74EFD08206064AC
:1023900000BF002084F8400000BF0120D8E7FFE71D
:1023A000206800682840A84201D1012000E00020F8
:1023B000B842C3D00020CBE700B5A3B000202290E4
:1023C0002D48FFF7B9F82C4800680068C0F30010EA
:1023D00000284FD000BF0020009027480068006808
:1023E0000090254800684068009000BF00BF224868
:1023F000FFF75BF8214800684068404220490870B8
:102400004FF400721F491C48FFF7D4FA1C480078AB
:102410008DF804009DF80400401C802802DD7F2018
:102420008DF804001648027816490DF10500FDF7F5
:102430005AFF00229DF80400401C0DF105010A54CA
:102440000F480078002815DD01200F49087000238F
:1024500022AA01A90D48006800F032FD00BF2298B1
:1024600038B14FF080500A490860BFF34F8FBFF377
:102470006F8F00BF23B000BDCC02002014030020EA
:1024800024000020CC000020250000208400002033
:1024900004ED00E000BFFEE70FB4054B10B503A943
:1024A000044A029800F034F810BC5DF814FB0000F8
:1024B00055280008C000002002480068C0F3022030
:1024C000704700000CED00E010B5002804DB0A079F
:1024D000130E054A135406E00A07140E034A00F0CF
:1024E0000F031B1FD45410BD00E400E018ED00E002
:1024F00002E008C8121F08C1002AFAD170477047CD
:10250000002001E001C1121F002AFBD1704700002A
:102510002DE9FF4F8BB088460546002606E02528AA
:102520000BD0DDE90D1290476D1C761C2878002831
:10253000F5D10FB03046BDE8F08F0024A146A24689
:102540000122AE4900E0044315F8013F203B02FAA6
:1025500003F00842F7D128782A2810D06FF02F0214
:102560002878A0F13001092915D809EB890102EB7F
:10257000410144F0020400EB01096D1CF0E758F83A
:10258000041B5FEA010903D544F40054C9F10009B2
:1025900044F002046D1C28782E2817D115F8010F7D
:1025A00044F004042A280ED06FF02F022878A0F1FE
:1025B000300109290AD80AEB8A0102EB410100EB3C
:1025C000010A6D1CF2E758F804AB6D1C28786C28E2
:1025D0000FD006DC4C2817D068280DD06A2814D1FB
:1025E00004E0742810D07A280FD10DE044F40014D0
:1025F0000AE044F4801401E044F440146978814214
:1026000002D104F580146D1C6D1C2878692865D0F2
:1026100006DC00288DD0632827D0642806D15DE031
:102620006E2808D073282AD0752877D0DDE90D12DE
:102630009047761CE0E0C4F30250022809D003283A
:102640000DD0D8F8001004280DD00E6008F1040851
:10265000D2E0D8F80010F217C1E90062F6E7D8F826
:1026600000100E80F2E70E70F0E718F8041B8DF8EA
:10267000001000208DF80100EB46012003E058F81F
:1026800004BB4FF0FF3061074FF0000701D40AE0B0
:102690007F1C57450DDA8742FADB1BF8071000292B
:1026A000F6D106E07F1C8742FCDB1BF807100029EF
:1026B000F8D1DDE90D23A9EB07008146214600F0A2
:1026C000B1F83044C61904E0DDE90D121BF8010B26
:1026D00090477F1EF8D22146484688E058F8040B00
:1026E000C4F302514FF00A0B032900D100B20429B0
:1026F00000D140B2002802DA40422D2102E021053B
:1027000005D52B218DF82410012104E006E0E10716
:1027100010D02021F6E708AF089113E058F8040B19
:10272000C4F302514FF00A0B032900D180B20429EF
:1027300000D1C0B20021EEE75946FDF7F8FD303177
:1027400007F8011D0028F7D1ADEB070000F1200BC1
:10275000600702D524F4803401E04FF0010ADA4525
:1027600002DDAAEB0B0000E00020824600EB0B012B
:1027700008980144A9EB01000A90E00306D4DDE9C2
:102780000D2321460A9800F04DF806444FF0000949
:1027900008E009A911F80900DDE90D12904709F1D7
:1027A0000109761C08998945F3DBE0030CD5DDE9C6
:1027B0000D2321460A9800F035F8064404E0DDE9CF
:1027C0000D1230209047761CBAF10001AAF1010ADF
:1027D000F5DC05E0DDE90D1217F8010B9047761CDA
:1027E000BBF10001ABF1010BF4DC0A982146DDE9F5
:1027F0000D2300F005F806446D1C97E6092801003A
:102800002DE9F041044600251E461746880404D4ED
:1028100005E039462020B0476D1C641EF9D52846D6
:10282000BDE8F0812DE9F041044600251E469046A2
:10283000C80301D5302700E02027880404D505E02F
:1028400041463846B0476D1C641EF9D52846BDE8A0
:10285000F081000013B50C4664230122694602484A
:10286000FFF7C0F800981CBDCC02002030B585B041
:1028700005460C4614216846FDF74EFD00940020E5
:10288000019002900320039069462846FEF77CF8E9
:1028900005B030BD30B585B005460C4614216846FC
:1028A000FDF73AFD009401200190002002900320E2
:1028B000039069462846FEF767F805B030BD70B54D
:1028C00004460D4629462046FEF758F970BD70B5FE
:1028D00004460D461646324629462046FEF756F96E
:1028E00070BD002101E04A1CD1B28142FBD3704788
:1028F0000EB5FEF763F9FFF795F9FFF7F9F8FFF763
:10290000D3F8FFF745F912481249134A134BCDE9A2
:1029100000210290124A134913A000F0BFF8134996
:10292000086013480B490C4A0023CDE900210290AE
:102930000B4A0C490FA000F0FCF80F49086005E0B5
:102940000D48006800F083F90C490860F8E70000C2
:102950009C000020BF280008CF280008E3280008BA
:102960006D280008952800086932630000000020E7
:10297000A8000020737069000400002020000020DF
:10298000F0B50B30154D20F007010024144A0FE07C
:1029900003688B420BD38B4205D95E1A43184768F4
:1029A000C3E9006700E04368136002C004E0021D51
:1029B00010680028ECD12046002802D1286808B110
:1029C0000020F0BD064A07481060074A121A22F09C
:1029D0000702C0E9002401202860D7E7C8000020D2
:1029E000C4000020BC060020B80800202DE9F041FA
:1029F00004460F4615464FF00008A66B206C48B9F8
:102A0000206800282CD1A06800F0F0FB8046002050
:102A1000A06025E07DB93946226C6068FDF763FC53
:102A2000216C606808446060D4E90101884217D3D2
:102A30002068606014E03946226CE068FDF753FCC2
:102A4000216CE068411AE1602168E068884203D2A5
:102A5000216CA068411AE160022D01D106B1761EF9
:102A6000701CA0634046BDE8F08100000948006882
:102A7000006808B9012000E0002020B14FF0FF30CD
:102A80000549086005E003480068C068006802491D
:102A9000086070473C000020680000202DE9F05FCE
:102AA00005460E4617469846DDE90BABDDF8289043
:102AB0001C20FFF765FF044654B16561C4F8088027
:102AC00067602660C4F80C90C4F810A0C4F818B071
:102AD000A3691988586822689047A369598898683B
:102AE000226890472046BDE8F09F10B504462CB1FF
:102AF000E06818B1206808B1A06900B910BDA269EA
:102B0000D18850690122E368984700BFF6E710B505
:102B100004462CB1E06818B1206808B1A06900B97A
:102B200010BDA269D18850690022E368984700BFB0
:102B3000F6E72DE9F05F06460F4690469946DDE937
:102B40000AAB0C9D1C20FFF71BFF04465CB16661BD
:102B50006661C4F80890C4F804802760C4F80CA02B
:102B6000C4F810B0A561A98828690022E3689847D5
:102B70002988A868226890476988E8686268904751
:102B8000A988286922689047E9886869226890477F
:102B90002046BDE8F09F70B5044600262CB1E068E1
:102BA00018B1206808B1A06908B9FF2070BD0025E0
:102BB00018E0A269918810690022E36898477006BE
:102BC000060EA3695988D86822699047012801D167
:102BD00046F00106A269918810690122E3689847CE
:102BE000681CC5B2082DE4DB3046DFE770B504464B
:102BF0000D462CB1E06818B1206808B1A06900B991
:102C000070BD00261FE0A269918810690022E36868
:102C1000984705F0800030B1A269118890680122C0
:102C2000E368984705E0A269118890680022E3688C
:102C300098476806050EA269918810690022E3682A
:102C40009847701CC6B2082EDDDB00BFD8E72DE91F
:102C5000F04104462CB1E06818B1206808B1A069C1
:102C600018B94FF0FF30BDE8F0812046FFF74FFF65
:102C70009F212046FFF7BAFF2046FFF78CFF8046D2
:102C80002046FFF788FF05462046FFF784FF0646EB
:102C90002046FFF780FF07462046FFF726FF38064D
:102CA00040EA064040EA052040EA0800DBE701462A
:102CB0000A69D1E901309860D1E901035860506890
:102CC000884201D188685060002008611068401E69
:102CD00010601068704700000148006870470000ED
:102CE0004800002000BF502080F31188BFF34F8FB1
:102CF000BFF36F8F00BF00BFFEE7000070B5FDF7A8
:102D0000ABFA0546102D11D305F1E02090F8F04301
:102D100010480078844201DB012000E0002028B93F
:102D20004FF45A720CA117A0FFF7B6FB19480068C0
:102D300000F4E06018490968884201D8012000E0E9
:102D4000002028B94FF45E7203A10EA0FFF7A4FB88
:102D500070BD00007C0000202E2E5C46726565521E
:102D6000544F535C706F727461626C655C52564470
:102D7000535C41524D5F434D34465C706F72742E0C
:102D8000630000004572726F723A25732C25640D42
:102D90000A0000000CED00E08000002070B52D4816
:102DA000006818B101202C49086052E000202A492F
:102DB000086000BF29480068046B4FF0A536206802
:102DC000B0F1A53F0BD16068B0F1A53F07D1A06875
:102DD000B0F1A53F03D1E068B0F1A53F09D01F488D
:102DE000006800F1340529461C480068FFF77AFFA7
:102DF00000BF00BF00BF1A480068B0FA80F0C0F101
:102E00001F0404EB8400174951F8200008B1012089
:102E100000E0002028B941F2FA3213A117A0FFF711
:102E20003BFB00BF04EB84010E4A02EB81004168CA
:102E30004968416000F1080142688A4201D1C168D5
:102E400041604168C968054A116000BF00BF104673
:102E5000006870BD740000205C0000203800002075
:102E600050000020D40300202E2E5C46726565526F
:102E7000544F535C7461736B732E63004572726FB1
:102E8000723A25732C25640D0A00000010B500BFAE
:102E9000502080F31188BFF34F8FBFF36F8F00BFB7
:102EA00000F0B2F818B14FF080500449086000BF3C
:102EB000002080F3118800BF10BD000004ED00E089
:102EC0002DE9FC5F80468B4691461E4644462CB950
:102ED0004FF492623BA140A0FFF7DEFABBF1000F76
:102EE00001D1206C08B9012000E0002028B940F28F
:102EF000914234A138A0FFF7CFFA022E02D1E06B45
:102F0000012801D1012000E0002028B940F29242BE
:102F10002CA131A0FFF7C0FAFFF7F0FE00BF50214F
:102F2000EFF3118081F31188BFF34F8FBFF36F8FE1
:102F300000BF0546A06BE16B884201D3022E37D15A
:102F400094F94570A06B0190324659462046FFF730
:102F50004DFD781C88B9606A08B9012000E00020A6
:102F600050B904F1240000F0C5F928B1B9F1000FFF
:102F700002D00120C9F8000017E000BFFFF7ACFE47
:102F80000090009887420FD27F2F01D0012000E0EF
:102F9000002028B940F21E520AA10FA0FFF77CFAC8
:102FA000781C40B284F8450000BF4FF0010A01E0F0
:102FB0004FF0000A00BF85F3118800BF5046BDE8FE
:102FC000FC9F00002E2E5C4672656552544F535C88
:102FD00071756575652E63004572726F723A25735F
:102FE0002C25640D0A0000000549096809B9012073
:102FF00005E00449096809B9022000E00020704793
:1030000054000020740000202DE9F0414FF000082A
:103010006248006800287DD161480068451C60480E
:103020000560F5B900BF5F480068006808B9012075
:1030300000E0002028B941F25F225BA15FA0FFF70A
:103040002BFA5848076861480068564908605F488D
:1030500007605F480068401C5D490860FFF706FD97
:1030600000BF5C48006885427ED300BF4D480068C1
:10307000006808B9012000E0002020B14FF0FF30C7
:10308000544908606FE047480068C068C4686668D3
:10309000B54202D24F48066065E000BF6069D4E9DE
:1030A00002128A60D4E902214A60211D42688A42E4
:1030B00001D1E1684160002262610168491E01603E
:1030C00000BFA06AA0B100BFA06AD4E907128A605D
:1030D000D4E907214A6004F1180142688A4201D10B
:1030E000216A41600022A2620168491E016000BF9E
:1030F00000BF94F82C100120884037490968084324
:103100003549086000BFE16A01EB8101334A02EBF7
:10311000810100E03AE04868A0608268E260211D19
:10312000826851608160E16A01EB81012B4A02EB08
:1031300081026261E16A01EB8101284A52F82110A3
:10314000491CE26A02EB8202244B43F8221000BFC2
:1031500000BF2349E06A0968C96A884286D94FF0EE
:10316000010883E700E000BF1D480068C06A00EB6B
:1031700080001A4951F82000012801D94FF00108B8
:103180001848006808B14FF0010804E016480068CC
:10319000401C154908604046BDE8F08174000020DD
:1031A0004C0000203C0000202E2E5C4672656552CB
:1031B000544F535C7461736B732E63004572726F6E
:1031C000723A25732C25640D0A000000400000208F
:1031D000600000206800002050000020D403002080
:1031E000380000205C0000205800002070B5054623
:1031F0002C460026002D62D032480068844201D15E
:10320000012000E0002028B941F628222EA133A099
:10321000FFF742F9206D28B941F629222AA12FA0F3
:10322000FFF73AF9206D401E2065E16CE06A8842A4
:1032300045D0206D002842D1201DFFF738FD40B950
:1032400094F82C10012088402849096881432748B8
:103250000160E06CE062E06AC0F12000A06100BFA4
:1032600094F82C10012088402049096808431F4920
:10327000086000BFE16A01EB81011D4A02EB810198
:103280004868A0608268E260211D826851608160A8
:10329000E16A01EB8101164A02EB81026261E16A97
:1032A00001EB8101124A52F82110491CE26A02EB3B
:1032B00082020F4B43F8221000BF00BF01263046A8
:1032C00070BD0000380000202E2E5C4672656552ED
:1032D000544F535C7461736B732E63004572726F4D
:1032E000723A25732C25640D0A000000500000205E
:1032F000D403002070B50646F068C4682CB941F2CA
:10330000F54240A144A0FFF7C7F800BFA06AD4E986
:1033100007128A60D4E907214A6004F11801426863
:103320008A4201D1216A41600022A2620168491EDD
:10333000016000BF3C480068002842D100BF6069BE
:10334000D4E902128A60D4E902214A60211D426850
:103350008A4201D1E1684160002262610168491E30
:10336000016000BF00BF94F82C10012088402F4955
:10337000096808432D49086000BFE16A01EB81013B
:103380002B4A02EB81014868A0608268E260211D3F
:10339000826851608160E16A01EB8101244A02EB9D
:1033A00081026261E16A01EB8101214A52F8211038
:1033B000491CE26A02EB82021D4B43F8221000BF57
:1033C00011E000BF1B494868E0618268226204F195
:1033D0001801826851608160164AA262114609682C
:1033E000491C116000BF1449E06A0968C96A884233
:1033F00004D9012501201149086000E00025284674
:1034000070BD00002E2E5C4672656552544F535CB1
:103410007461736B732E63004572726F723A257319
:103420002C25640D0A0000007400002050000020CC
:10343000D40300207C060020380000205C0000201F
:103440000006101600061016000000000000000024
:10345000010203040607080900000000010203043A
:103460008034000800000020CC000000F024000898
:103470004C350008CC000020EC0B000000250008B3
:10348000000000000000000068656C6C6F20776F22
:10349000726C6421000000000000000000000000C9
:1034A000000000000000000000000000100000000C
:1034B000010000000024F4000000000000000000F3
:1034C00000000000000000000000000000000000FC
:1034D00000000000000000000000000000000000EC
:1034E00000000000000000000000000000000000DC
:1034F0001F00000000000000AAAAAAAA0000000005
:1035000000000000000000000000000000000000BB
:1035100000000000000000000000000000010002A8
:103520000004024000040240200010000800400097
:10353000000402400004024000040240001802405F
:0C3540000000000000000000000000007F
:040000050800018965
:00000001FF
